{
  "contractName": "Burger",
  "abi": [
    {
      "inputs": [
        {
          "internalType": "address",
          "name": "_buyerAddr",
          "type": "address"
        }
      ],
      "payable": true,
      "stateMutability": "payable",
      "type": "constructor"
    },
    {
      "anonymous": false,
      "inputs": [
        {
          "indexed": false,
          "internalType": "address",
          "name": "buyer",
          "type": "address"
        },
        {
          "indexed": false,
          "internalType": "uint256",
          "name": "invoiceno",
          "type": "uint256"
        },
        {
          "indexed": false,
          "internalType": "uint256",
          "name": "orderno",
          "type": "uint256"
        },
        {
          "indexed": false,
          "internalType": "uint256",
          "name": "delivery_date",
          "type": "uint256"
        }
      ],
      "name": "InvoiceSent",
      "type": "event"
    },
    {
      "anonymous": false,
      "inputs": [
        {
          "indexed": false,
          "internalType": "address",
          "name": "buyer",
          "type": "address"
        },
        {
          "indexed": false,
          "internalType": "uint256",
          "name": "invoiceno",
          "type": "uint256"
        },
        {
          "indexed": false,
          "internalType": "uint256",
          "name": "orderno",
          "type": "uint256"
        },
        {
          "indexed": false,
          "internalType": "uint256",
          "name": "real_delivey_date",
          "type": "uint256"
        }
      ],
      "name": "OrderDelivered",
      "type": "event"
    },
    {
      "anonymous": false,
      "inputs": [
        {
          "indexed": false,
          "internalType": "address",
          "name": "buyer",
          "type": "address"
        },
        {
          "indexed": false,
          "internalType": "string",
          "name": "goods",
          "type": "string"
        },
        {
          "indexed": false,
          "internalType": "uint256",
          "name": "quantity",
          "type": "uint256"
        },
        {
          "indexed": false,
          "internalType": "uint256",
          "name": "orderno",
          "type": "uint256"
        }
      ],
      "name": "OrderSent",
      "type": "event"
    },
    {
      "anonymous": false,
      "inputs": [
        {
          "indexed": false,
          "internalType": "address",
          "name": "buyer",
          "type": "address"
        },
        {
          "indexed": false,
          "internalType": "uint256",
          "name": "orderno",
          "type": "uint256"
        },
        {
          "indexed": false,
          "internalType": "uint256",
          "name": "price",
          "type": "uint256"
        }
      ],
      "name": "PriceSent",
      "type": "event"
    },
    {
      "anonymous": false,
      "inputs": [
        {
          "indexed": false,
          "internalType": "address",
          "name": "buyer",
          "type": "address"
        },
        {
          "indexed": false,
          "internalType": "uint256",
          "name": "orderno",
          "type": "uint256"
        },
        {
          "indexed": false,
          "internalType": "uint256",
          "name": "value",
          "type": "uint256"
        },
        {
          "indexed": false,
          "internalType": "uint256",
          "name": "now",
          "type": "uint256"
        }
      ],
      "name": "SafepaySent",
      "type": "event"
    },
    {
      "constant": true,
      "inputs": [],
      "name": "buyerAddr",
      "outputs": [
        {
          "internalType": "address",
          "name": "",
          "type": "address"
        }
      ],
      "payable": false,
      "stateMutability": "view",
      "type": "function"
    },
    {
      "constant": true,
      "inputs": [],
      "name": "owner",
      "outputs": [
        {
          "internalType": "address payable",
          "name": "",
          "type": "address"
        }
      ],
      "payable": false,
      "stateMutability": "view",
      "type": "function"
    },
    {
      "constant": false,
      "inputs": [
        {
          "internalType": "string",
          "name": "goods",
          "type": "string"
        },
        {
          "internalType": "uint256",
          "name": "quantity",
          "type": "uint256"
        }
      ],
      "name": "sendOrder",
      "outputs": [],
      "payable": true,
      "stateMutability": "payable",
      "type": "function"
    },
    {
      "constant": true,
      "inputs": [
        {
          "internalType": "uint256",
          "name": "number",
          "type": "uint256"
        }
      ],
      "name": "queryOrder",
      "outputs": [
        {
          "internalType": "address",
          "name": "buyer",
          "type": "address"
        },
        {
          "internalType": "string",
          "name": "goods",
          "type": "string"
        },
        {
          "internalType": "uint256",
          "name": "quantity",
          "type": "uint256"
        },
        {
          "internalType": "uint256",
          "name": "price",
          "type": "uint256"
        },
        {
          "internalType": "uint256",
          "name": "safepay",
          "type": "uint256"
        }
      ],
      "payable": false,
      "stateMutability": "view",
      "type": "function"
    },
    {
      "constant": false,
      "inputs": [
        {
          "internalType": "uint256",
          "name": "orderno",
          "type": "uint256"
        },
        {
          "internalType": "uint256",
          "name": "price",
          "type": "uint256"
        }
      ],
      "name": "sendPrice",
      "outputs": [],
      "payable": true,
      "stateMutability": "payable",
      "type": "function"
    },
    {
      "constant": false,
      "inputs": [
        {
          "internalType": "uint256",
          "name": "orderno",
          "type": "uint256"
        }
      ],
      "name": "sendSafepay",
      "outputs": [],
      "payable": true,
      "stateMutability": "payable",
      "type": "function"
    },
    {
      "constant": false,
      "inputs": [
        {
          "internalType": "uint256",
          "name": "orderno",
          "type": "uint256"
        },
        {
          "internalType": "uint256",
          "name": "delivery_date",
          "type": "uint256"
        }
      ],
      "name": "sendInvoice",
      "outputs": [],
      "payable": true,
      "stateMutability": "payable",
      "type": "function"
    },
    {
      "constant": true,
      "inputs": [
        {
          "internalType": "uint256",
          "name": "invoiceno",
          "type": "uint256"
        }
      ],
      "name": "getInvoice",
      "outputs": [
        {
          "internalType": "address",
          "name": "buyer",
          "type": "address"
        },
        {
          "internalType": "uint256",
          "name": "orderno",
          "type": "uint256"
        }
      ],
      "payable": false,
      "stateMutability": "view",
      "type": "function"
    },
    {
      "constant": false,
      "inputs": [
        {
          "internalType": "uint256",
          "name": "invoiceno",
          "type": "uint256"
        },
        {
          "internalType": "uint256",
          "name": "timestamp",
          "type": "uint256"
        }
      ],
      "name": "delivery",
      "outputs": [],
      "payable": true,
      "stateMutability": "payable",
      "type": "function"
    }
  ],
  "bytecode": "0x60806040526040516110073803806110078339818101604052602081101561002657600080fd5b8101908080519060200190929190505050336000806101000a81548173ffffffffffffffffffffffffffffffffffffffff021916908373ffffffffffffffffffffffffffffffffffffffff16021790555080600160006101000a81548173ffffffffffffffffffffffffffffffffffffffff021916908373ffffffffffffffffffffffffffffffffffffffff16021790555050610f3f806100c86000396000f3fe6080604052600436106100865760003560e01c80639670d699116100595780639670d699146101d4578063a877f21514610299578063c5cc426a146102f0578063cea9e360146103ec578063fe2852481461042457610086565b80633a23cc0a1461008b5780636ca1608b1461010d5780636e0fa7be146101455780638da5cb5b1461017d575b600080fd5b34801561009757600080fd5b506100c4600480360360208110156100ae57600080fd5b8101908080359060200190929190505050610452565b604051808373ffffffffffffffffffffffffffffffffffffffff1673ffffffffffffffffffffffffffffffffffffffff1681526020018281526020019250505060405180910390f35b6101436004803603604081101561012357600080fd5b8101908080359060200190929190803590602001909291905050506104e7565b005b61017b6004803603604081101561015b57600080fd5b8101908080359060200190929190803590602001909291905050506106b3565b005b34801561018957600080fd5b5061019261085a565b604051808273ffffffffffffffffffffffffffffffffffffffff1673ffffffffffffffffffffffffffffffffffffffff16815260200191505060405180910390f35b610297600480360360408110156101ea57600080fd5b810190808035906020019064010000000081111561020757600080fd5b82018360208201111561021957600080fd5b8035906020019184600183028401116401000000008311171561023b57600080fd5b91908080601f016020809104026020016040519081016040528093929190818152602001838380828437600081840152601f19601f8201169050808301925050505050505091929192908035906020019092919050505061087f565b005b3480156102a557600080fd5b506102ae610a82565b604051808273ffffffffffffffffffffffffffffffffffffffff1673ffffffffffffffffffffffffffffffffffffffff16815260200191505060405180910390f35b3480156102fc57600080fd5b506103296004803603602081101561031357600080fd5b8101908080359060200190929190505050610aa8565b604051808673ffffffffffffffffffffffffffffffffffffffff1673ffffffffffffffffffffffffffffffffffffffff16815260200180602001858152602001848152602001838152602001828103825286818151815260200191508051906020019080838360005b838110156103ad578082015181840152602081019050610392565b50505050905090810190601f1680156103da5780820380516001836020036101000a031916815260200191505b50965050505050505060405180910390f35b6104226004803603604081101561040257600080fd5b810190808035906020019092919080359060200190929190505050610c0b565b005b6104506004803603602081101561043a57600080fd5b8101908080359060200190929190505050610d45565b005b6000806003600084815260200190815260200160002060020160009054906101000a900460ff1661048257600080fd5b6000600360008581526020019081526020016000209050600060026000836000015481526020019081526020016000209050600160009054906101000a900473ffffffffffffffffffffffffffffffffffffffff168160020154935093505050915091565b6003600083815260200190815260200160002060020160009054906101000a900460ff1661051457600080fd5b60006003600084815260200190815260200160002090506000600260008360000154815260200190815260200160002090503373ffffffffffffffffffffffffffffffffffffffff16600160009054906101000a900473ffffffffffffffffffffffffffffffffffffffff1673ffffffffffffffffffffffffffffffffffffffff16146105a057600080fd5b7fb671b6cf46deb3668bce472507f22a16c9253392853a9d1793d7d465bee29bd3600160009054906101000a900473ffffffffffffffffffffffffffffffffffffffff1685836002015486604051808573ffffffffffffffffffffffffffffffffffffffff1673ffffffffffffffffffffffffffffffffffffffff16815260200184815260200183815260200182815260200194505050505060405180910390a16000809054906101000a900473ffffffffffffffffffffffffffffffffffffffff1673ffffffffffffffffffffffffffffffffffffffff166108fc82600401549081150290604051600060405180830381858888f193505050501580156106ac573d6000803e3d6000fd5b5050505050565b6002600083815260200190815260200160002060050160009054906101000a900460ff166106e057600080fd5b3373ffffffffffffffffffffffffffffffffffffffff166000809054906101000a900473ffffffffffffffffffffffffffffffffffffffff1673ffffffffffffffffffffffffffffffffffffffff161461073957600080fd5b6005600081548092919060010191905055506040518060600160405280838152602001600554815260200160011515815250600360006005548152602001908152602001600020600082015181600001556020820151816001015560408201518160020160006101000a81548160ff0219169083151502179055509050507f4e73ada6ce7fbce2c4edb576df8182c8e5786abaf1a9f85eff23b23063dd9b2b600160009054906101000a900473ffffffffffffffffffffffffffffffffffffffff166005548484604051808573ffffffffffffffffffffffffffffffffffffffff1673ffffffffffffffffffffffffffffffffffffffff16815260200184815260200183815260200182815260200194505050505060405180910390a15050565b6000809054906101000a900473ffffffffffffffffffffffffffffffffffffffff1681565b600160009054906101000a900473ffffffffffffffffffffffffffffffffffffffff1673ffffffffffffffffffffffffffffffffffffffff163373ffffffffffffffffffffffffffffffffffffffff16146108d957600080fd5b6004600081548092919060010191905055506040518060c0016040528083815260200182815260200160045481526020016000815260200160008152602001600115158152506002600060045481526020019081526020016000206000820151816000019080519060200190610950929190610e65565b506020820151816001015560408201518160020155606082015181600301556080820151816004015560a08201518160050160006101000a81548160ff0219169083151502179055509050507fb7e953e9d5dc29b2595c1ea82eed1d21925712de892f26dd7323f0040bf3f59c338383600454604051808573ffffffffffffffffffffffffffffffffffffffff1673ffffffffffffffffffffffffffffffffffffffff16815260200180602001848152602001838152602001828103825285818151815260200191508051906020019080838360005b83811015610a41578082015181840152602081019050610a26565b50505050905090810190601f168015610a6e5780820380516001836020036101000a031916815260200191505b509550505050505060405180910390a15050565b600160009054906101000a900473ffffffffffffffffffffffffffffffffffffffff1681565b6000606060008060006002600087815260200190815260200160002060050160009054906101000a900460ff16610ade57600080fd5b600160009054906101000a900473ffffffffffffffffffffffffffffffffffffffff16600260008881526020019081526020016000206000016002600089815260200190815260200160002060010154600260008a815260200190815260200160002060030154600260008b815260200190815260200160002060040154838054600181600116156101000203166002900480601f016020809104026020016040519081016040528092919081815260200182805460018160011615610100020316600290048015610bf15780601f10610bc657610100808354040283529160200191610bf1565b820191906000526020600020905b815481529060010190602001808311610bd457829003601f168201915b505050505093509450945094509450945091939590929450565b6000809054906101000a900473ffffffffffffffffffffffffffffffffffffffff1673ffffffffffffffffffffffffffffffffffffffff163373ffffffffffffffffffffffffffffffffffffffff1614610c6457600080fd5b6002600083815260200190815260200160002060050160009054906101000a900460ff16610c9157600080fd5b8060026000848152602001908152602001600020600301819055507f60d45b75a21e219fa57f0168f27b2d5a6a5ebd022df5c262f6fe65338692fd8a600160009054906101000a900473ffffffffffffffffffffffffffffffffffffffff168383604051808473ffffffffffffffffffffffffffffffffffffffff1673ffffffffffffffffffffffffffffffffffffffff168152602001838152602001828152602001935050505060405180910390a15050565b6002600082815260200190815260200160002060050160009054906101000a900460ff16610d7257600080fd5b3373ffffffffffffffffffffffffffffffffffffffff16600160009054906101000a900473ffffffffffffffffffffffffffffffffffffffff1673ffffffffffffffffffffffffffffffffffffffff1614610dcc57600080fd5b3460026000838152602001908152602001600020600401819055507f4ca09f9926d2e48ef31cb6b14dbda230c7420702b8a8f5b878dd572c593e99d233823442604051808573ffffffffffffffffffffffffffffffffffffffff1673ffffffffffffffffffffffffffffffffffffffff16815260200184815260200183815260200182815260200194505050505060405180910390a150565b828054600181600116156101000203166002900490600052602060002090601f016020900481019282601f10610ea657805160ff1916838001178555610ed4565b82800160010185558215610ed4579182015b82811115610ed3578251825591602001919060010190610eb8565b5b509050610ee19190610ee5565b5090565b610f0791905b80821115610f03576000816000905550600101610eeb565b5090565b9056fea265627a7a72315820d778192b38b1c6ebd19e50bb499172dde6d0ecf4aebeef9fa1f63a606fb35bc564736f6c63430005100032",
  "source": "pragma solidity ^0.5.0;\n\ncontract Burger {\n\t// The burger store's address\n \taddress payable public owner;\n\n\t/// The buyer's address part on this contract\n\taddress public buyerAddr;\n\n\t// The Buyer struct\n\tstruct Buyer {\t\t\t\t\n\t\taddress addr;\n\t\tstring name;\t\t\n\n\t\tbool init;\n\t}\n\n\t/// The Order struct\n\tstruct Order {\n\t\tstring goods;\n\t\tuint quantity;\n\t\tuint number;\n\t\tuint price;\n\t\tuint safepay;\n\n\t\tbool init;\t\t\t\n\t}\n\n\t/// The Invoice struct\n\tstruct Invoice {\n\t\tuint orderno;\n\t\tuint number;\t\n\n\t\tbool init;\n\t}\n\n\t/// The mapping to store orders\n\tmapping (uint => Order) orders;\n\n\t/// The mapping to store invoices\n\tmapping (uint => Invoice) invoices;\n\n\t/// The sequence number of orders\n\tuint orderseq;\n\n\t/// The sequence number of invoices\n\tuint invoiceseq;\n\n\t// Event triggered for every new order\n\tevent OrderSent(address buyer, string goods, uint quantity, uint orderno);\n\n\t// Event triggerd when the order gets valued and wants to know the value of the payment\n\tevent PriceSent(address buyer, uint orderno, uint price);\n\n\t/// Event trigger when the buyer performs the safepay\n\tevent SafepaySent(address buyer, uint orderno, uint value, uint now);\n\n\t/// Event triggered when the seller sends the invoice\n\tevent InvoiceSent(address buyer, uint invoiceno, uint orderno, uint delivery_date);\n\n\t/// Event triggered when the courie delives the order\n\tevent OrderDelivered(address buyer, uint invoiceno, uint orderno, uint real_delivey_date);\n\n\t// The smart contract's constructor\n\tconstructor(address _buyerAddr) public payable {\n\t\t/// The seller is the contract's owner\n\t\towner = msg.sender;\n\n\t\tbuyerAddr = _buyerAddr;\n\t}\n\n\n\t// The function to send purchase orders\n\t//   requires fee\n\t//   Payable functions returns just the transaction object, with no custom field.\n\t//   To get field values listen to OrderSent event.\n\tfunction sendOrder(string memory goods, uint quantity) payable public {\n\t\t/// Accept orders just from buyer\n\t\trequire(msg.sender == buyerAddr);\n\n\t\t/// Increment the order sequence\n\t\torderseq++;\n\n\t\t/// Create the order register\n\t\torders[orderseq] = Order(goods, quantity, orderseq, 0, 0, true);\n\n\t\t/// Trigger the event\n\t\temit OrderSent(msg.sender, goods, quantity, orderseq);\n\t}\n\n\t// The function to query orders by number\n\t// Constant functions returns custom fields\n\tfunction queryOrder(uint number) view public returns (address buyer, string memory goods, uint quantity, uint price, uint safepay) {\n\t\t// Validate the order number\n\t\trequire(orders[number].init);\n\n\t\t// Return the order data\n\t\treturn(buyerAddr, orders[number].goods, orders[number].quantity, orders[number].price, orders[number].safepay);\n\t}\n\n\t// The function to send the price to pay for order\n\t//  Just the owner can call this function\n\t//  requires free\n\tfunction sendPrice(uint orderno, uint price) payable public {\n\t\t// Only the owner can use this function\n\t\trequire(msg.sender == owner);\n\n\t\t// Validate the order number\n\t\trequire(orders[orderno].init);\n\n\t\t// Update the order price\n\t\torders[orderno].price = price;\n\n\t\t// Trigger the event\n\t\temit PriceSent(buyerAddr, orderno, price);\n\t}\n\n\t/// The function to send the value of order's price\n\t///  This value will be blocked until the delivery of order\n\t///  requires fee\n\tfunction sendSafepay(uint orderno) payable public {\n\n\t\t/// Validate the order number\n\t\trequire(orders[orderno].init);\n\n\t\t/// Just the buyer can make safepay\n\t\trequire(buyerAddr == msg.sender);\n\n\t\t/// The order's value plus the shipment value must equal to msg.value\n\t\t//require((orders[orderno].price + orders[orderno].shipment.price) == msg.value);\n\n\t\torders[orderno].safepay = msg.value;\n\n\t\temit SafepaySent(msg.sender, orderno, msg.value, now);\n\t}\n\n\t/// The function to send the invoice data\n\t///  requires fee\n\tfunction sendInvoice(uint orderno, uint delivery_date) payable public {\n\n\t\t/// Validate the order number\n\t\trequire(orders[orderno].init);\n\n\t\t/// Just the seller can send the invoice\n\t\trequire(owner == msg.sender);\n\n\t\tinvoiceseq++;\n\n\t\t/// Create then Invoice instance and store it\n\t\tinvoices[invoiceseq] = Invoice(orderno, invoiceseq, true);\n\n\t\t/// Trigger the event\n\t\temit InvoiceSent(buyerAddr, invoiceseq, orderno, delivery_date);\n\t}\n\n\t/// The function to get the sent invoice\n\t///  requires no fee\n\tfunction getInvoice(uint invoiceno) view public returns (address buyer, uint orderno/*, uint delivery_date*/){\n\n\t\t/// Validate the invoice number\n\t\trequire(invoices[invoiceno].init);\n\n\t\tInvoice storage _invoice = invoices[invoiceno];\n\t\tOrder storage _order     = orders[_invoice.orderno];\n\t\t// order a delivery date attribute eklenmesi lazım\n\t\t//return (buyerAddr, _order.number, _order.shipment.date, _order.shipment.courier);\n\t\treturn (buyerAddr, _order.number);\n\t}\n\n\t/// The function to mark an order as delivered\n\tfunction delivery(uint invoiceno, uint timestamp) payable public {\n\n\t\t/// Validate the invoice number\n\t\trequire(invoices[invoiceno].init);\n\n\t\tInvoice storage _invoice = invoices[invoiceno];\n\t\tOrder storage _order     = orders[_invoice.orderno];\n\n\t\t/// Just the courier can call this function\n\t\t//require(_order.shipment.courier == msg.sender);\n\n\t\t/// Just the buyer can make safepay\n\t\trequire(buyerAddr == msg.sender);\n\n\t\temit OrderDelivered(buyerAddr, invoiceno, _order.number, timestamp);\n\n\t\t/// Payout the Order to the seller\n\t\towner.transfer(_order.safepay);\n\n\t\t/// Payout the Shipment to the courier\n\t\t//_order.shipment.courier.transfer(_order.shipment.safepay);\n\n\t}\n\n\n}",
  "sourcePath": "/home/ahmet/Documents/the_smart_contract_burger_store/contracts/Burger.sol",
  "compiler": {
    "name": "solc",
    "version": "0.5.16+commit.9c3226ce.Emscripten.clang"
  },
  "schemaVersion": "3.3.3",
  "updatedAt": "2021-04-10T11:03:41.785Z",
  "networkType": "ethereum",
  "devdoc": {
    "methods": {}
  },
  "userdoc": {
    "methods": {
      "delivery(uint256,uint256)": {
        "notice": "The function to mark an order as delivered"
      },
      "getInvoice(uint256)": {
        "notice": "The function to get the sent invoice  requires no fee"
      },
      "sendInvoice(uint256,uint256)": {
        "notice": "The function to send the invoice data  requires fee"
      },
      "sendSafepay(uint256)": {
        "notice": "The function to send the value of order's price  This value will be blocked until the delivery of order  requires fee"
      }
    }
  }
}